:100000000C945A000C946F000C946F000C946F00C9
:100010000C946F000C946F000C946F000C946F00A4
:100020000C946F000C946F000C946F000C946F0094
:100030000C946F000C946F000C946F000C946F0084
:100040000C946F000C946F000C946F000C946F0074
:100050000C946F000C946F000C946F000C946F0064
:100060000C946F000C946F000C946F000C946F0054
:100070000C946F000C946F000C946F000C946F0044
:100080000C946F000C946F000C946F000C946F0034
:100090000C946F000C946F000C946F000C946F0024
:1000A0000C946F000C946F000C946F000C946F0014
:1000B0000C946F0011241FBECFEFD8E0DEBFCDBF80
:1000C00011E0A0E0B1E0E8EEF1E002C005900D9291
:1000D000A03CB107D9F70E94EB000C94F2000C94FD
:1000E000000015B8289A2A9A209A229A239A259ACB
:1000F00018B81BB8529A539A549A559A1EB8689ACF
:10010000699A6A9A6B9A08951092C5008CE0809360
:10011000C400E1ECF0E08081886080830895811163
:1001200004C08091C1008F7E03C08091C1008061B6
:100130008093C10008959091C00095FFFCCF8093FB
:10014000C60008952091C00027FF06C02091C60078
:10015000FC01208381E0089580E008950F931F93B0
:10016000CF93DF93FC0101900020E9F73197CE2F68
:10017000C81BD82F8C01802F8D1B8C1730F4F801F1
:1001800081918F010E949B00F6CFDF91CF911F914B
:100190000F91089583B18695817008950F931F93F1
:1001A0002A988C01222733270EBD0DB407FEFDCF00
:1001B000072F182F292F33270EBD0DB407FEFDCFB3
:1001C0006EBD0DB407FEFDCF2A9A1F910F910895C1
:1001D0008F708EB908950E9471000E9484008FE094
:0801E0008EB9FECFF894FFCFA9
:1001E80020F90F00061200000900300020F90F0066
:1001F8000A1200000900300020F90F000E1200005A
:100208000900300020F90F00121200000900300028
:1002180020F90F00161200000900300020F90F0025
:100228001A1200000900300020F90F001E12000009
:100238000900300020F90F00021300000900300007
:1002480020F90F00061300000900300020F90F0004
:100258000A1300000900300020F90F000E130000F7
:100268000900300020F90F001213000009003000C7
:1002780020F90F00161300000900300020F90F00C4
:100288001A1300000900300020F90F001E130000A7
:100298000900300020F90F000214000009003000A6
:00000001FF
