:100000000C945A000C946F000C946F000C946F00C9
:100010000C946F000C946F000C946F000C946F00A4
:100020000C946F000C946F000C946F000C946F0094
:100030000C946F000C946F000C946F000C946F0084
:100040000C946F000C946F000C946F000C946F0074
:100050000C946F000C946F000C946F000C946F0064
:100060000C946F000C946F000C946F000C946F0054
:100070000C946F000C946F000C946F000C946F0044
:100080000C946F000C946F000C946F000C946F0034
:100090000C946F000C946F000C946F000C946F0024
:1000A0000C946F000C946F000C946F000C946F0014
:1000B0000C946F0011241FBECFEFD8E0DEBFCDBF80
:1000C00014E0A0E0B1E0E2ECF3E002C005900D9294
:1000D000A034B107D9F70E94B3010C94DF010C944E
:1000E000000015B8289A2A9A209A229A239A259ACB
:1000F00018B81BB8529A539A549A559A1EB8689ACF
:10010000699A6A9A6B9A08951092C5008CE0809360
:10011000C400E1ECF0E0808188608083089580E590
:100120008CBD0895811104C08091C1008F7E03C0F1
:100130008091C10080618093C10008959091C000BA
:1001400095FFFCCF8093C60008952091C00027FF43
:1001500006C02091C600FC01208381E0089580E064
:1001600008950F931F93CF93DF93FC01019000201C
:10017000E9F73197CE2FC81BD82F8C01802F8D1B0C
:100180008C1730F4F80181918F010E949E00F6CF08
:10019000DF91CF911F910F91089583B18695817062
:1001A00008950F931F932A982898EFECF7E0319762
:1001B000F1F700C00000092F1127222733270EBDB9
:1001C0000DB407FEFDCF8C01222733270EBD0DB4E1
:1001D00007FEFDCF072F182F292F33270EBD0DB493
:1001E00007FEFDCF6EBD0DB407FEFDCF8FEC97E08F
:1001F0000197F1F700C000002A9A289A1F910F91E9
:1002000008958F708EB908959BB144E0849F90014A
:1002100011242C73922B9BB90895CF93DF93CDB704
:10022000DEB789AD813009F09BC06DA97EA98FA989
:1002300098AD0E94D1008FE19EE40197F1F700C0D4
:10024000000069A97AA98BA99CA90E94D1008FE11D
:100250009EE40197F1F700C000006DA57EA58FA573
:1002600098A90E94D1008FE19EE40197F1F700C0A8
:10027000000069A57AA58BA59CA50E94D1008FE1FD
:100280009EE40197F1F700C000006DA17EA18FA14F
:1002900098A50E94D1008FE19EE40197F1F700C07C
:1002A000000069A17AA18BA19CA10E94D1008FE1DD
:1002B0009EE40197F1F700C000006D8D7E8D8F8D5B
:1002C00098A10E94D1008FE19EE40197F1F700C050
:1002D0000000698D7A8D8B8D9C8D0E94D1008FE1FD
:1002E0009EE40197F1F700C000006D897E898F8937
:1002F000988D0E94D1008FE19EE40197F1F700C034
:10030000000069897A898B899C890E94D1008FE1DC
:100310009EE40197F1F700C000006D857E858F8512
:1003200098890E94D1008FE19EE40197F1F700C007
:10033000000069857A858B859C850E94D1009FE7A6
:1003400029EA83E0915020408040E1F700C000009E
:100350006D817E818F819885DF91CF910C94D10042
:10036000DF91CF9108950E9471000E94840080E582
:100370008CBD84E18BB981E08F938DB79EB7C49714
:100380000FB6F8949EBF0FBE8DBFADB7BEB7119626
:1003900084E3E0E0F1E001900D928A95E1F70E949C
:1003A0000D018DB79EB7C5960FB6F8949EBF0FBED0
:1003B0008DBF0E94CD00825F8F708EB9FACFF89406
:0203C000FFCF6D
:1003C200E00320000100000812000000030000000A
:1003D2008489003425008000F6030235E70000120C
:1003E20028042D10C97C21213A32C0000B30610053
:1003F2001C040100A00220000100000812000000FD
:10040200030000008489003425008000F6E30235F1
:10041200E700001228042D10C97C21213A32C000C5
:100422000B3061001C04010000000000000000000D
:1004320000000000000000000000000000000000BA
:1004420000000000000000000000000000000000AA
:10045200000000000000000000000000000000009A
:10046200000000000000000000000000000000008A
:00000001FF
